{
  "contractName": "Unifi",
  "abi": [
    {
      "inputs": [],
      "payable": false,
      "stateMutability": "nonpayable",
      "type": "constructor"
    },
    {
      "constant": false,
      "inputs": [
        {
          "name": "_longitude",
          "type": "uint256"
        },
        {
          "name": "_latitude",
          "type": "uint256"
        },
        {
          "name": "_base_fee",
          "type": "uint256"
        },
        {
          "name": "_ssid",
          "type": "string"
        },
        {
          "name": "_mac_address",
          "type": "string"
        }
      ],
      "name": "registerHost",
      "outputs": [],
      "payable": false,
      "stateMutability": "nonpayable",
      "type": "function"
    },
    {
      "constant": false,
      "inputs": [],
      "name": "login",
      "outputs": [],
      "payable": false,
      "stateMutability": "nonpayable",
      "type": "function"
    },
    {
      "constant": false,
      "inputs": [
        {
          "name": "user",
          "type": "address"
        },
        {
          "name": "charge",
          "type": "uint256"
        }
      ],
      "name": "logout",
      "outputs": [],
      "payable": false,
      "stateMutability": "nonpayable",
      "type": "function"
    },
    {
      "constant": false,
      "inputs": [],
      "name": "deposit",
      "outputs": [],
      "payable": true,
      "stateMutability": "payable",
      "type": "function"
    },
    {
      "constant": false,
      "inputs": [],
      "name": "withdrawHost",
      "outputs": [],
      "payable": false,
      "stateMutability": "nonpayable",
      "type": "function"
    },
    {
      "constant": false,
      "inputs": [],
      "name": "withdrawUser",
      "outputs": [],
      "payable": false,
      "stateMutability": "nonpayable",
      "type": "function"
    }
  ],
  "bytecode": "0x60806040526012600a0a6000556003600160006101000a81548160ff021916908360ff16021790555034801561003457600080fd5b50610a95806100446000396000f3fe608060405260043610610078576000357c0100000000000000000000000000000000000000000000000000000000900463ffffffff1680630d332af71461007d5780635a2b7d3c14610094578063abcbb55f146100ef578063b34e97e814610106578063cf6a70ad1461011d578063d0e30db01461029a575b600080fd5b34801561008957600080fd5b506100926102a4565b005b3480156100a057600080fd5b506100ed600480360360408110156100b757600080fd5b81019080803573ffffffffffffffffffffffffffffffffffffffff16906020019092919080359060200190929190505050610377565b005b3480156100fb57600080fd5b50610104610492565b005b34801561011257600080fd5b5061011b610565565b005b34801561012957600080fd5b50610298600480360360a081101561014057600080fd5b810190808035906020019092919080359060200190929190803590602001909291908035906020019064010000000081111561017b57600080fd5b82018360208201111561018d57600080fd5b803590602001918460018302840111640100000000831117156101af57600080fd5b91908080601f016020809104026020016040519081016040528093929190818152602001838380828437600081840152601f19601f8201169050808301925050505050505091929192908035906020019064010000000081111561021257600080fd5b82018360208201111561022457600080fd5b8035906020019184600183028401116401000000008311171561024657600080fd5b91908080601f016020809104026020016040519081016040528093929190818152602001838380828437600081840152601f19601f82011690508083019250505050505050919291929050505061068b565b005b6102a261085d565b005b6000600460003373ffffffffffffffffffffffffffffffffffffffff1673ffffffffffffffffffffffffffffffffffffffff1681526020019081526020016000205490506000600460003373ffffffffffffffffffffffffffffffffffffffff1673ffffffffffffffffffffffffffffffffffffffff168152602001908152602001600020819055503373ffffffffffffffffffffffffffffffffffffffff166108fc829081150290604051600060405180830381858888f19350505050158015610373573d6000803e3d6000fd5b5050565b8160011515600360008373ffffffffffffffffffffffffffffffffffffffff1673ffffffffffffffffffffffffffffffffffffffff16815260200190815260200160002060000160009054906101000a900460ff1615151415156103da57600080fd5b81600360008573ffffffffffffffffffffffffffffffffffffffff1673ffffffffffffffffffffffffffffffffffffffff16815260200190815260200160002060010160008282540392505081905550610432610492565b6000600360008573ffffffffffffffffffffffffffffffffffffffff1673ffffffffffffffffffffffffffffffffffffffff16815260200190815260200160002060000160006101000a81548160ff021916908315150217905550505050565b6000600460003373ffffffffffffffffffffffffffffffffffffffff1673ffffffffffffffffffffffffffffffffffffffff1681526020019081526020016000205490503373ffffffffffffffffffffffffffffffffffffffff166108fc829081150290604051600060405180830381858888f1935050505015801561051c573d6000803e3d6000fd5b506000600460003373ffffffffffffffffffffffffffffffffffffffff1673ffffffffffffffffffffffffffffffffffffffff1681526020019081526020016000208190555050565b3360001515600360008373ffffffffffffffffffffffffffffffffffffffff1673ffffffffffffffffffffffffffffffffffffffff16815260200190815260200160002060000160009054906101000a900460ff1615151415156105c857600080fd5b60001515600360003373ffffffffffffffffffffffffffffffffffffffff1673ffffffffffffffffffffffffffffffffffffffff16815260200190815260200160002060000160019054906101000a900460ff161515141561062d5761062c6108af565b5b6001600360003373ffffffffffffffffffffffffffffffffffffffff1673ffffffffffffffffffffffffffffffffffffffff16815260200190815260200160002060000160006101000a81548160ff02191690831515021790555050565b82600260003373ffffffffffffffffffffffffffffffffffffffff1673ffffffffffffffffffffffffffffffffffffffff1681526020019081526020016000206004018190555084600260003373ffffffffffffffffffffffffffffffffffffffff1673ffffffffffffffffffffffffffffffffffffffff1681526020019081526020016000206001018190555083600260003373ffffffffffffffffffffffffffffffffffffffff1673ffffffffffffffffffffffffffffffffffffffff1681526020019081526020016000206002018190555081600260003373ffffffffffffffffffffffffffffffffffffffff1673ffffffffffffffffffffffffffffffffffffffff16815260200190815260200160002060050190805190602001906107b69291906109c4565b5080600260003373ffffffffffffffffffffffffffffffffffffffff1673ffffffffffffffffffffffffffffffffffffffff168152602001908152602001600020600601908051906020019061080d9291906109c4565b506000600260003373ffffffffffffffffffffffffffffffffffffffff1673ffffffffffffffffffffffffffffffffffffffff168152602001908152602001600020600001819055505050505050565b34600360003373ffffffffffffffffffffffffffffffffffffffff1673ffffffffffffffffffffffffffffffffffffffff16815260200190815260200160002060010160008282540192505081905550565b3360001515600360008373ffffffffffffffffffffffffffffffffffffffff1673ffffffffffffffffffffffffffffffffffffffff16815260200190815260200160002060000160009054906101000a900460ff16151514151561091257600080fd5b6060604051908101604052806000151581526020016001151581526020016000815250600360003373ffffffffffffffffffffffffffffffffffffffff1673ffffffffffffffffffffffffffffffffffffffff16815260200190815260200160002060008201518160000160006101000a81548160ff02191690831515021790555060208201518160000160016101000a81548160ff0219169083151502179055506040820151816001015590505050565b828054600181600116156101000203166002900490600052602060002090601f016020900481019282601f10610a0557805160ff1916838001178555610a33565b82800160010185558215610a33579182015b82811115610a32578251825591602001919060010190610a17565b5b509050610a409190610a44565b5090565b610a6691905b80821115610a62576000816000905550600101610a4a565b5090565b9056fea165627a7a7230582071228d19ef1f80834e0ca26133c31775c0c06fe9bb1528f396ea4af6ef4430cf0029",
  "source": "pragma solidity 0.5.0;\n// should extend ERC20 token?\ncontract Unifi {\n    // Minimum topup is 10 MB = 10,000,000,000,000 wei\n    uint256 constant decimals = 18;\n    uint256 eth = 10 ** decimals;\n    uint constant minimum_topup = 10_000_000_000_000 wei;\n    uint8 base_rating = 3;\n    struct User {\n        bool is_connected;  // to the wifi?\n        bool is_registered; // have he ever used Uni-Fi\n        uint256 balance;\n    }\n\n    struct Host {\n        uint256 balance;\n        uint256 longitude;\n        uint256 latitude;\n        uint256 users_connected;\n        uint256 base_fee;\n        string ssid;\n        string mac_address;\n        uint8[5] rating;\n    }\n    mapping(address => Host) host_array;\n    mapping(address => User) user_array;\n    mapping(address => uint) pendingWithdrawals;\n    constructor() public {\n       // set owner\n    }\n    modifier isConnected(address user) {\n        require(user_array[user].is_connected == true);\n        _;\n    }\n    modifier isNotConnected(address user) {\n        require(user_array[user].is_connected == false);\n        _;\n    }\n    function registerHost(uint256 _longitude,\n        uint256 _latitude,\n        uint256 _base_fee,\n        string memory _ssid,\n        string memory _mac_address ) public {\n        host_array[msg.sender].base_fee = _base_fee;\n        host_array[msg.sender].longitude = _longitude;\n        host_array[msg.sender].latitude = _latitude;\n        host_array[msg.sender].ssid = _ssid;\n        host_array[msg.sender].mac_address = _mac_address;\n        host_array[msg.sender].balance = 0;\n    }\n    function registerUser() private isNotConnected(msg.sender){\n        user_array[msg.sender] = User({\n            is_connected: false,\n            is_registered: true,\n            balance: 0\n        });\n    }\n    function repHost(address _host, uint8 _rep) internal {\n        host_array[_host].rating[_rep] += 1;\n    }\n    function login() public isNotConnected(msg.sender) {\n        if ( user_array[msg.sender].is_registered == false ) {\n            registerUser();\n        }\n        // here we login\n        user_array[msg.sender].is_connected = true;\n    }\n    function logout(address user, uint charge) public isConnected(user) {\n        // subtract the charge\n        user_array[user].balance -= charge;\n        withdrawUser();\n        //address(this).transfer(due_to_contract);\n        // user.transfer(due_to_user);\n        user_array[user].is_connected = false;\n    }\n    function deposit() public payable {\n        user_array[msg.sender].balance += msg.value;\n    }\n    function withdrawHost() public {\n        // subtract user usage from host balance\n        uint amount = pendingWithdrawals[msg.sender];\n        // Remember to zero the pending refund before\n        // sending to prevent re-entrancy attacks\n        pendingWithdrawals[msg.sender] = 0;\n        msg.sender.transfer(amount);\n    }\n    function withdrawUser() public {\n        // subtract user usage from user balance\n        uint amount = pendingWithdrawals[msg.sender];\n        // Remember to zero the pending refund before\n        // sending to prevent re-entrancy attacks\n        msg.sender.transfer(amount);\n        pendingWithdrawals[msg.sender] = 0;\n    }\n    // /// Handle ethers received by the contract\n    // receive() external payable {\n    // }\n    // /// Handle undefined function calls\n    // fallback() external {\n    //     revert();\n    // }\n}",
  "sourcePath": "/Users/codeme/code/ubifi/src/contracts/Unifi.sol",
  "compiler": {
    "name": "solc",
    "version": "0.5.0+commit.1d4f565a.Emscripten.clang"
  },
  "schemaVersion": "3.0.20",
  "updatedAt": "2020-03-01T00:17:07.881Z",
  "devdoc": {
    "methods": {}
  },
  "userdoc": {
    "methods": {}
  }
}